:100000000C94CC000C94F4000C94F4000C94F400C8
:100010000C94F4000C94F4000C94F4000C94F40090
:100020000C94F4000C94F4000C94F4000C94F40080
:100030000C94F4000C94F4000C94F4000C94F40070
:100040000C945C1C0C94F4000C94B41A0C94E91AF3
:100050000C94F4000C94F4000C94F4000C94F40050
:100060000C94F4000C94F4006572726F7220777235
:100070006974696E6720746F2066696C65004372ED
:100080006561746520636F6E666967206661696C7F
:1000900065640052656D6F766520636F6E66696793
:1000A000206661696C6564004572726F72206372CC
:1000B000656174696E67205345514C4F470A0021B2
:1000C000546F6F206D616E79206C6F67733A3221C7
:1000D0000021546F6F206D616E79206C6F67733AE9
:1000E0003121006572726F72206F70656E526F6F92
:1000F00074006572726F7220766F6C756D652E6913
:100100006E6974006572726F7220636172642E6929
:100110006E6974005344206572726F723A200065F4
:1001200072726F723A20007C3C3E5E2B3D3F2F5B2B
:100130005D3B2C2A225C0000000000240027002ADE
:100140000000000000250028002B00000000002314
:10015000002600290004040404040404040202022A
:1001600002020203030303030301020408102040F8
:100170008001020408102001020408102000000081
:100180000700020100000304060000000000000058
:100190000000EC014017E50111241FBECFEFD8E0AD
:1001A000DEBFCDBF11E0A0E0B1E0EEEEF4E402C0AE
:1001B00005900D92AC3FB107D9F717E0ACEFB1E075
:1001C00001C01D92AF3BB107E1F711E0C6E9D1E0F4
:1001D00004C02297FE010E94211FC239D107C9F72E
:1001E0000E94461D0C946A220C940000EF92FF922C
:1001F0000F931F937A018B011092C1002E732093ED
:10020000C200403081EE580780E0680780E0780740
:1002100029F41092C00020E130E013C082E0809306
:10022000C00060E079E08DE390E0A80197010E94B2
:10023000FD1E21503040404050405695479537951F
:1002400027953093C5002093C40088E98093C100AE
:100250001F910F91FF90EF9008958091C00085FF4E
:10026000FCCF6093C60081E090E00895CF92DF92CA
:10027000EF92FF920F931F93CF93DF937C016B015B
:100280008A01C0E0D0E00DC0D701ED91FC91D6010C
:10029000AC0FBD1F0190F081E02DC7016C91099555
:1002A0002196C017D10780F3C801DF91CF911F912C
:1002B0000F91FF90EF90DF90CF900895089583EA1B
:1002C00097E00E94591A0895DF93CF930F92CDB70C
:1002D000DEB783EA97E0BE016F5F7F4F0E94141A7A
:1002E000882319F42FEF3FEF03C08981282F30E0D6
:1002F000C9010F90CF91DF91089583EA97E00E94A2
:10030000021A0895FC018FEE91E09183808387812A
:10031000882321F0CF0104960E94D80F08958130E0
:10032000910509F044C06F5F7F4F09F04DC01092F6
:10033000FF011092FE0188EE93E0A0E0B0E0809310
:10034000000290930102A0930202B09303028FED8A
:1003500091E09093FD018093FC0183EA97E068E0CF
:1003600072E041E253E00E944D1A89E180932B052F
:1003700010922E05109246051092510510925405C8
:100380001092500510924F058FEE91E090934E051C
:1003900080934D05109270051092730510926F05B1
:1003A00010926E0590936D0580936C050895892BCE
:1003B00059F46F5F7F4F41F48CE695E00E94820113
:1003C0008DE495E00E948201089580E090E06FEF57
:1003D0007FEF0E948F01089581E090E06FEF7FEF43
:1003E0000E948F0108951F9385EB97E061E070E014
:1003F0000E948B1B80938B058B3050F081E08093A3
:100400008B0585EB97E061E070E041E00E94861B80
:1004100085EB97E062E070E00E948B1B80938C0577
:10042000863048F010928C0585EB97E062E070E032
:1004300040E00E94861B85EB97E065E070E00E943B
:100440008B1B80938D0581508E3F50F08AE1809305
:100450008D0585EB97E065E070E04AE10E94861B20
:1004600085EB97E066E070E00E948B1B80938E0521
:1004700081508E3F50F083E080938E0585EB97E0AE
:1004800066E070E043E00E94861B85EB97E067E042
:1004900070E00E948B1B11E010938F0585EB97E0B5
:1004A00067E070E041E00E94861B85EB97E068E022
:1004B00070E00E948B1B1093900585EB97E068E03D
:1004C00070E041E00E94861B1F9108950F931F93D7
:1004D00005EB17E0C80161E070E041E00E94861B77
:1004E000C80162E070E040E00E94861BC80165E040
:1004F00070E04AE10E94861BC80166E070E043E0BC
:100500000E94861BC80167E070E041E00E94861BE4
:10051000C80168E070E041E00E94861B1F910F91C6
:1005200008950F931F93CF93DF93C0E0D0E0082F7F
:1005300010E015C085E061E00E94B51B68EC70E03A
:1005400080E090E00E94B21C85E060E00E94B51B54
:1005500068EC70E080E090E00E94B21C2196C01729
:10056000D10744F360ED77E080E090E00E94B21C98
:10057000C0E0D0E0F4CF0F931F93CF93DF93EC0153
:100580008B0141E00E94350A882311F081E005C00B
:10059000CE01B80140E00E94350ADF91CF911F9152
:1005A0000F910895EF92FF920F931F93CF93DF93D4
:1005B0007B018A01060F171FEB01C017D107B0F4AA
:1005C0002091A5073091A6078091A7079091A807D1
:1005D0002817390759F0A8014C1B5D0B83EA97E0F7
:1005E000BE010E94361BC80FD91FE7CF9E012E19EE
:1005F0003F09C901DF91CF911F910F91FF90EF90BB
:1006000008950F931F938C018CEF91E06FE171E0DF
:100610000E947F1D8CEF91E0B8010E94CB1E80915B
:100620002B058823E9F08CEF91E064E171E00E94F2
:100630007F1D60912B058CEF91E070E040E150E070
:100640000E94961E8CEF91E06CE20E94A21D6091C8
:100650002D058CEF91E070E040E150E00E94A91E72
:10066000FFCFAF92BF92CF92DF92EF92FF920F93A4
:100670001F93DF93CF93CDB7DEB7C155D0400FB6F0
:10068000F894DEBF0FBECDBF1FAA1AAE1EAA1DAAC8
:100690008FEE91E09CAB8BABCE01C7966FE275E01D
:1006A0000E942C12882321F480E091E00E94010333
:1006B0008E010F5F1F4FC80169E071E00E946D1F3E
:1006C00027E3E22EF12CEC0EFD1E80E795E0B7014A
:1006D000A80122E00E943816882391F080E795E077
:1006E0000E94B710882361F48CEF91E063E970E019
:1006F0000E94CA1D80E795E00E94D80FC701F3C091
:100700008E01095C1F4F80E795E0B801AE014F5F95
:100710005F4F26E40E943816882361F48CEF91E045
:100720006EE770E00E94CA1D80E795E00E94D80F36
:10073000C801D9C085EB97E061E070E00E948B1B97
:10074000082F85EB97E065E070E00E948B1BA82ED8
:1007500085EB97E066E070E00E948B1BB82E85EB7E
:1007600097E062E070E00E948B1BC82E85EB97E05B
:1007700067E070E00E948B1BD82E85EB97E068E065
:1007800070E00E948B1B182F002329F4CE010B96DA
:1007900064E171E030C0043029F4CE010B9669E1C8
:1007A00071E029C0013029F4CE010B966EE171E0B1
:1007B00022C0053029F4CE010B9663E271E01BC024
:1007C000063029F4CE010B9669E271E014C00230C4
:1007D00029F4CE010B966FE271E00DC0033029F4CD
:1007E000CE010B9665E371E006C0073031F4CE010F
:1007F0000B966CE371E00E946D1F8DB79EB70E974C
:100800000FB6F8949EBF0FBE8DBFEDB7FEB7319601
:100810009FE1E92EF12CEC0EFD1EADB7BEB712968E
:10082000FC92EE92119783E491E0938382838A2D68
:10083000992787FD9095958384838B2D992787FD34
:100840009095978386838C2D992787FD9095918726
:1008500080878D2D992787FD909593878287812F9B
:10086000992787FD9095958784870E947C1F8DB777
:100870009EB70E960FB6F8949EBF0FBE8DBF8E0129
:10088000055F1F4FC801B7010E94591FF801019071
:100890000020E9F73197E01BF10B8CE695E0B801F9
:1008A000AF010E942F17F80101900020E9F731975E
:1008B000E01BF10B8E179F0731F08CEF91E068E69B
:1008C00070E00E94CA1D8CE695E064E571E00E942C
:1008D0000A1780E795E00E948A0F80E795E00E9462
:1008E000D80FCE01C7960E94D80FCE01C3960E94A2
:1008F0008201CF5ADF4F0FB6F894DEBF0FBECDBFD7
:10090000CF91DF911F910F91FF90EF90DF90CF90EB
:10091000BF90AF9008952F923F924F925F926F9247
:100920007F928F929F92AF92BF92CF92DF92EF927F
:10093000FF920F931F93DF93CF93CDB7DEB7C754CA
:10094000D0400FB6F894DEBF0FBECDBF1DA618AACB
:100950001CA61BA68FEE91E09AA789A7CE018D96C3
:100960006FE275E00E942C12882321F480E091E070
:100970000E9401038E01085F1F4FC80169E071E00A
:100980000E946D1FFDE2EF2EF12CEC0EFD1E80E7A4
:1009900095E0B701A80121E00E943816882341F4B0
:1009A00080E795E00E94D80FC7010E94D80FB8C118
:1009B000CC24DD248E010B5E1F4F80E795E00E9462
:1009C000D81118165CF4F801EC0DFD1D8083089415
:1009D000C11CD11C84E1C816D10479F780E795E0E9
:1009E0000E94D80FCE018D960E94D80F01E0BB2443
:1009F000EAE18E2E73E0A72E772473946624639425
:100A0000992410E07E010894E11CF11C65E1262E7A
:100A1000312C2C0E3D1E57E0452E512C4C0E5D1EE8
:100A200096C0ED9393942A2F2E19892D90E0F10111
:100A3000E80FF91FE081EC3231F08C159D051CF4B4
:100A4000A415B50571F7F701E20FF11D1082C7017A
:100A50000E94251F112309F047C0C70164E171E01E
:100A60000E94641F009711F400E06FC0C70169E1A4
:100A700071E00E94641F009711F404E066C0C70192
:100A80006EE171E00E94641F009709F45DC0C70128
:100A900063E271E00E94641F009711F405E055C005
:100AA000C70169E271E00E94641F009711F406E03B
:100AB0004CC0C7016FE271E00E94641F009711F4FF
:100AC00002E043C0C70165E371E00E94641F009724
:100AD00011F403E03AC0C7016CE371E00E94641FA7
:100AE000009791F507E031C0113031F4882E88234A
:100AF00061F54AE1842E29C0123039F4A82E8823EA
:100B000001F18AE08A15ECF020C0133041F4B82ED0
:100B10008823D9F085E08B15C4F4BB2416C01430AB
:100B200039F4782E81E0871580F4772473940DC012
:100B30001530A1F4682E81E0861538F4662463949C
:100B400004C033E0A32E01C001E01F5F9394892D00
:100B500090E08C159D0514F4D70165CF202F332725
:100B600027FD309580918B0590E02817390711F407
:100B700040E070C085EB97E061E070E0402F0E949C
:100B8000861B00938B05002349F48CEF91E040E62F
:100B900059E060E070E026E00E94F60080918B054D
:100BA000843049F48CEF91E040EC52E160E070E079
:100BB00026E00E94F60080918B05813049F48CEF8D
:100BC00091E040E855E260E070E026E00E94F60027
:100BD00080918B05853049F48CEF91E040E05BE437
:100BE00060E070E026E00E94F60080918B05863080
:100BF00049F48CEF91E040E056E960E070E026E0D7
:100C00000E94F60080918B05823049F48CEF91E0D0
:100C100040E051EE60E070E026E00E94F600809136
:100C20008B05833049F48CEF91E040E052EC61E0B9
:100C300070E026E00E94F60080918B05873049F431
:100C40008CEF91E040E054E863E070E026E00E9421
:100C5000F60041E02B2D332727FD309580918C0540
:100C600090E02817390751F0B0928C0585EB97E09A
:100C700062E070E04B2D0E94861B41E0282D332757
:100C800027FD309580918D0590E02817390751F0A8
:100C900080928D0585EB97E065E070E0482D0E941D
:100CA000861B41E02A2D332727FD309580918E0544
:100CB00090E02817390751F0A0928E0585EB97E058
:100CC00066E070E04A2D0E94861B41E0272D332705
:100CD00027FD309580918F0590E02817390751F056
:100CE00070928F0585EB97E067E070E0472D0E94DA
:100CF000861B41E0262D332727FD309580919005F6
:100D000090E02817390751F06092900585EB97E045
:100D100068E070E0462D0E94861B02C0413011F44D
:100D20000E943103CE0189960E948201C95BDF4F88
:100D30000FB6F894DEBF0FBECDBFCF91DF911F91EC
:100D40000F91FF90EF90DF90CF90BF90AF909F906A
:100D50008F907F906F905F904F903F902F9008956D
:100D60000F931F9380E060E00E948F1B80E061E0A2
:100D70000E94B51B80E00E94091C019709F471C014
:100D80008DE061E00E948F1B8DE061E00E94B51B49
:100D900010E000E269E170E080E090E00E94B21CA7
:100DA0008BB180278BB980E00E94091C019709F460
:100DB00058C069E170E080E090E00E94B21C85B10B
:100DC000802785B980E00E94091C019709F449C079
:100DD0001F5F1832F9F60E9466028AE295E060E031
:100DE0004AE00E943619882321F487E791E00E94A7
:100DF00001038FE295E06AE275E00E94BB0288235E
:100E000021F481E891E00E94010381E595E06FE221
:100E100075E00E942C12882321F480E091E00E946A
:100E200001030E94310385E061E00E948F1B8DE089
:100E300061E00E948F1B85E061E00E94B51B8DE0A0
:100E400061E00E94B51B10E264EF71E080E090E089
:100E50000E94B21C8BB181278BB985B1812785B9DE
:100E6000F3CF1F910F91089585E061E00E948F1BE1
:100E700083B7817F83BF83B7816083BF80917A000E
:100E80008F7780937A0080E880BF8FE380937E0025
:100E900083E080937F008091640080688093640089
:100EA0008091640088608093640080916400806415
:100EB00080936400809164008160809364000E944C
:100EC000B0060E94F30180918B05882349F48CEFD2
:100ED00091E040E659E060E070E026E00E94F60014
:100EE00080918B05843049F48CEF91E040EC52E125
:100EF00060E070E026E00E94F60080918B05813072
:100F000049F48CEF91E040E855E260E070E026E0C3
:100F10000E94F60080918B05853049F48CEF91E0BA
:100F200040E05BE460E070E026E00E94F600809123
:100F30008B05863049F48CEF91E040E056E960E0A3
:100F400070E026E00E94F60080918B05823049F423
:100F50008CEF91E040E051EE60E070E026E00E940E
:100F6000F60080918B05833049F48CEF91E040E0EE
:100F700052EC61E070E026E00E94F60080918B0563
:100F8000873049F48CEF91E040E054E863E070E092
:100F900026E00E94F6008CEF91E06DE871E00E947F
:100FA000C81E8AE295E060E04AE00E943619882374
:100FB00049F48CEF91E064E071E00E947F1D83E0D2
:100FC0000E9491028FE295E06AE275E00E94BB0206
:100FD000882349F48CEF91E062EF70E00E947F1D5E
:100FE00083E00E94910281E595E06FE275E00E9446
:100FF0002C12882349F48CEF91E063EE70E00E949C
:101000007F1D83E00E9491028CEF91E06FE871E018
:101010000E94C81E0E948B040895BF92CF92DF9257
:10102000EF92FF920F931F93DF93CF93CDB7DEB76D
:10103000A0970FB6F894DEBF0FBECDBFAC0180E71E
:1010400095E061E575E026E40E943816882321F4D6
:1010500081E991E00E9401038091810590918205D0
:10106000A0918305B09184050097A105B10561F4B5
:1010700080E795E040E050E060E070E00E94C00E44
:1010800080E795E00E948A0F8CEF91E06CE30E946C
:10109000A21D85E061E00E94B51B8DE061E00E9429
:1010A000B51B00E010E0EE24FF246E010894C11C83
:1010B000D11CA0E2BA2E05C00894E11CF11C00E08E
:1010C00010E08CEF91E0B60140E250E00E94D202C5
:1010D000482F882301F18CE695E0B60150E00E948C
:1010E0002F178BB18B258BB989E6E81682E4F806B9
:1010F00018F38CEF91E067E971E00E94CB1E85B197
:101100008B2585B980E795E00E948A0F00E010E00A
:10111000EE24FF24D6CF0B3F110518F40F5F1F4FAD
:101120002BC08CEF91E060EA71E00E94CB1E80E75B
:1011300095E00E948A0F5D982D98809164008062EE
:10114000809364008091640084608093640083B71E
:10115000816083BF889583B78E7F83BF8091640051
:101160008B7F80936400809164008F7D8093640006
:1011700000E010E0EE24FF2461E070E080E090E009
:101180000E94B21C9ECF0F931F93DF93CF93CDB7D6
:10119000DEB72D970FB6F894DEBF0FBECDBFDE01D0
:1011A0001196E5EBF1E08DE001900D928150E1F7B1
:1011B00080E795E061E575E08E010F5F1F4FA801A4
:1011C00022E40E943816882339F48CEF91E068EA13
:1011D00070E00E947F1D07C080E795E00E94D80F55
:1011E000C8010E940D082D960FB6F894DEBF0FBE01
:1011F000CDBFCF91DF911F910F910895CF92DF92D4
:10120000EF92FF920F931F93DF93CF93CDB7DEB78B
:101210002D970FB6F894DEBF0FBECDBF85EB97E0DC
:1012200063E070E00E948B1B182F85EB97E064E071
:1012300070E00E948B1B282F1F3F99F48F3F89F489
:1012400085EB97E063E070E040E00E94861B85EB51
:1012500097E064E070E040E00E94861BEE24FF24EB
:1012600010C0922F80E0E12EFF24E82AF92A8EEFA9
:10127000E8168FEFF80629F48CEF91E061ED70E04D
:101280001CC0DE011196EEECF1E08DE001900D92B4
:101290008150E1F78E010F5F1F4FB2ECCB2EB1E012
:1012A000DB2E0894E11CF11C9EEFE9169FEFF90676
:1012B00038F08CEF91E06FEB70E00E947F1D42C030
:1012C00000D000D000D0EDB7FEB73196ADB7BEB7B5
:1012D00012961C930E931197D382C282F582E482F8
:1012E0000E947C1F8DB79EB706960FB6F8949EBFDE
:1012F0000FBE8DBF80E795E061E575E0A80122ECA7
:101300000E943816882369F280E795E00E94D80F82
:1013100085EB97E063E070E04E2D0E94861B85EB25
:1013200097E064E070E00E948B1B8F1539F085EB2D
:1013300097E064E070E04F2D0E94861BCE0101967D
:101340000E940D082D960FB6F894DEBF0FBECDBFDC
:10135000CF91DF911F910F91FF90EF90DF90CF9091
:10136000089580918C05882311F40E94FE088091D5
:101370008C05813011F40E94C308FFCF809197073C
:10138000882399F1409191055091920560919305C0
:1013900070919405809195079091960725E935E025
:1013A0000E944718882319F1409198075091990796
:1013B00060919A0770919B07411551056105710570
:1013C00091F0809195079091960725E935E00E946C
:1013D0004718882361F0109298071092990710928D
:1013E0009A0710929B071092970781E0089580E07A
:1013F0000895DF92EF92FF920F931F937B018C0170
:10140000D42E8091910590919205A0919305B09171
:1014100094058E159F05A007B107C1F00E94BE0973
:101420008823E1F08091950790919607B801A70174
:1014300025E935E00E940219882381F0E0929105A8
:10144000F09292050093930510939405DD2011F41A
:1014500081E005C081E08093970701C080E01F9183
:101460000F91FF90EF90DF9008958F929F92AF922F
:10147000BF92CF92DF92EF92FF920F931F93CF9381
:10148000DF936C01142F7093960760939507FC010E
:10149000178A82E090E0A0E0B0E080839183A2838D
:1014A000B3831092970710929807109299071092A1
:1014B0009A0710929B078FEF9FEFAFEFBFEF8093DC
:1014C000910590939205A0939305B09394054423BE
:1014D00021F488249924540140C0453008F01EC1ED
:1014E00060E070E080E090E040E00E94F90988232D
:1014F00009F414C1C12FD0E02197FE0174E0EE0F72
:10150000FF1F7A95E1F7EB56FA4FE254FE4F8081C8
:10151000EE5BF14090E08F779070892B09F0FEC070
:10152000E653FE4F80819181A281B381843691057B
:10153000A105B10508F4F2C064E0CC0FDD1F6A9587
:10154000E1F7C55AD84F88809980AA80BB80811462
:101550009104A104B10409F4E1C0C501B40140E063
:101560000E94F909882309F4D9C08091A0059091BF
:10157000A1058050924009F0D1C02091A5052223F9
:1015800009F4CCC08091A3059091A405892B09F49E
:10159000C5C08091A205882309F4C0C0F601228B42
:1015A0008091A2058483158661E070E007C04F5FDB
:1015B000F60145874150483008F0B0C0F601458536
:1015C000848190E09B01042E02C0220F331F0A94F5
:1015D000E2F78217930759F72091AB053091AC05DC
:1015E0002115310519F040E050E008C02091B905FF
:1015F0003091BA054091BB055091BC05F601258399
:10160000368347835087E090A305F090A40500E05F
:1016100010E0E80CF91C0A1D1B1DE38AF48A058BF7
:10162000168B8091A6059091A705918F808F609170
:10163000A50570E080E090E00E94DE1E6E0D7F1D2B
:10164000801F911FF601628F738F848F958F209179
:10165000A6053091A70555E0220F331F5A95E1F7F3
:1016600021503E4F232F3327269540E050E0260F90
:10167000371F481F591F26873787408B518B809112
:10168000A8059091A905009719F0A0E0B0E008C066
:101690008091B5059091B605A091B705B091B805B8
:1016A00085017401E21AF30A040B150BA8019701D6
:1016B000280F391F4A1F5B1FF601058404C0569589
:1016C0004795379527950A94D2F721873287438724
:1016D0005487253FFFE03F07F0E04F07F0E05F074A
:1016E00020F48CE0F601878B19C0255F3F4F404006
:1016F000504018F480E1F6010EC08091C105909130
:10170000C205A091C305B091C405F601828F938FE5
:10171000A48FB58F80E2878B81E001C080E0DF91EC
:10172000CF911F910F91FF90EF90DF90CF90BF90DE
:10173000AF909F908F9008956F927F928F929F921B
:10174000AF92BF92CF92DF92EF92FF920F931F93CF
:10175000CF93DF93EC015A016B013801490142300C
:1017600051056105710508F45EC089859A85AB85D0
:10177000BC850196A11DB11D84179507A607B70763
:1017800008F451C08F89803129F4E52EF62E072FF9
:1017900011270CC0803209F046C07A018B0187E026
:1017A00016950795F794E7948A95D1F78B899C89CC
:1017B000AD89BE89E80EF91E0A1F1B1FC801B701BB
:1017C00041E00E94F909882371F18F89803149F441
:1017D000F501F070EE0FFF1FEB56FA4F7182608239
:1017E0000DC0F501EF77F070EE0FFF1FEE0FFF1F3A
:1017F000EB56FA4F60827182828293828A898230AC
:1018000080F08D819E81AF81B885E80EF91E0A1F98
:101810001B1FE0929807F092990700939A07109384
:101820009B0781E001C080E0DF91CF911F910F9174
:10183000FF90EF90DF90CF90BF90AF909F908F90F0
:101840007F906F900895CF92DF92EF92FF920F9367
:101850001F93CF93DF93EC017A018B016901898596
:101860009A85AB85BC850196A11DB11D841795078E
:10187000A607B70708F453C08F89803129F455278C
:10188000412F302F2F2D0CC0803209F048C09A0113
:10189000AB0167E056954795379527956A95D1F73F
:1018A0008B899C89AD89BE89280F391F4A1F5B1F10
:1018B0008091910590919205A0919305B091940526
:1018C000281739074A075B0739F0CA01B90140E018
:1018D0000E94F909882319F18F89803159F4F701A1
:1018E000F070EE0FFF1FEB56FA4F80819181A0E060
:1018F000B0E00EC0F701EF77F070EE0FFF1FEE0FB4
:10190000FF1FEB56FA4F80819181A281B381BF7096
:10191000F60180839183A283B38381E001C080E0DC
:10192000DF91CF911F910F91FF90EF90DF90CF90BB
:101930000895AF92BF92CF92DF92EF92FF920F93F2
:101940001F93DF93CF9300D000D0CDB7DEB76C01EB
:101950007A018B0182E090E0A0E0B0E0F6018083A4
:101960009183A283B3835E010894A11CB11CC601BC
:10197000B801A70195010E94230C882341F1C601FB
:10198000B801A70100E010E020E030E00E949C0BCD
:101990008823E9F0E980FA800B811C81F6018789B0
:1019A000803151F4F8EFEF16FFEFFF06F0E00F077C
:1019B000F0E01F07E0F209C088EFE8168FEFF806A5
:1019C0008FEF08078FE0180790F281E001C080E0F8
:1019D0000F900F900F900F90CF91DF911F910F916B
:1019E000FF90EF90DF90CF90BF90AF9008954F920F
:1019F0005F926F927F928F929F92AF92BF92CF929F
:101A0000DF92EF92FF920F931F93DF93CF9300D05B
:101A100000D0CDB7DEB76C0149835A836B837C83DA
:101A20003901EE24FF2487012E010894411C511C2A
:101A3000812CE2E09E2EA12CB12C49815A816B8130
:101A40007C81C60192010E94230C882339F1D501C3
:101A5000C401F601058404C0880F991FAA1FBB1F8B
:101A60000A94D2F7E80EF91E0A1F1B1F29813A813A
:101A70004B815C818789803131F4285F3F4F404042
:101A80005040D8F205C0285F3F4F4F4F5F40A8F24B
:101A9000F301E082F1820283138381E00F900F90C3
:101AA0000F900F90CF91DF911F910F91FF90EF90CA
:101AB000DF90CF90BF90AF909F908F907F906F906E
:101AC0005F904F9008952F923F924F925F926F9246
:101AD0007F928F929F92AF92BF92CF92DF92EF92BE
:101AE000FF920F931F93DF93CF93CDB7DEB72F975E
:101AF0000FB6F894DEBF0FBECDBF1C014A875B87CF
:101B00006C877D873F872E87DC0119968D919D918B
:101B10000D90BC91A02D0196A11DB11D8E839F83B8
:101B2000A887B987F90100811181228133810115CC
:101B300011052105310549F0480159010894811C1E
:101B4000911CA11CB11C1D8210C0D1018D909D90D3
:101B5000AD90BC901D828A859B85AC85BD85019723
:101B6000A105B10511F491E09D8375016401442440
:101B7000552432018E010F5F1F4FF101818592853F
:101B8000A385B485481659066A067B0608F090C0FE
:101B90008E819F81A885B9858C159D05AE05BF05F1
:101BA00050F4A2E08A2E912CA12CB12CF2E0CF2E81
:101BB000D12CE12CF12CC101B701A60198010E94A2
:101BC000230C882309F474C089819A81AB81BC817C
:101BD000A70196012F5F3F4F4F4F5F4F0097A10521
:101BE000B10519F049015A010DC0281939094A09EE
:101BF0005B098A859B85AC85BD85281739074A070F
:101C00005B0759F00894411C511C611C711C08941D
:101C1000C11CD11CE11CF11CB0CFC101A601B70150
:101C20000FEF1FEF2FEF3FE00E949C0B882399F4EA
:101C30003FC0260137010894410851086108710826
:101C4000C101B301A201970186010E949C0B882368
:101C500079F1730162018C149D04AE04BF0448F352
:101C6000AE85BF854D915D916D917C91411551057A
:101C70006105710539F0C101950184010E949C0B39
:101C80008823B1F0EE85FF8580829182A282B382A3
:101C9000FD81FF2359F00894811C911CA11CB11CEB
:101CA000D1018D929D92AD92BC92139781E001C0BB
:101CB00080E02F960FB6F894DEBF0FBECDBFCF9158
:101CC000DF911F910F91FF90EF90DF90CF90BF9029
:101CD000AF909F908F907F906F905F904F903F90CC
:101CE0002F9008950F931F93CF93DF93DC01EB01A7
:101CF0008A0180E090E020E2FE01E80FF91F2083D6
:101D000001968B309105C1F757E040E024C0622F67
:101D10002E3219F087E291E007C05A3051F15AE0B3
:101D200048E018C0321729F1FC01019634913323A1
:101D3000C9F75417F0F02132E0F02F37D0F4822F9A
:101D400081568A3110F4622F6052FE01E40FF11DBA
:101D500060834F5F11962C91222311F02F32B9F638
:101D6000F801B183A08390E08881803219F091E07E
:101D700001C090E0892FDF91CF911F910F910895BD
:101D80006F927F928F929F92AF92BF92CF92DF928B
:101D9000EF92FF920F931F93CF93DF93EC017A01A1
:101DA0008B012B81222309F480C089899A89AB8910
:101DB000BC8984179507A607B70708F476C085C0C5
:101DC000E114F1040105110551F41C821D821E82EB
:101DD0001F82188619861A861B8681E067C02885AF
:101DE00039854A855B85E98DFA8D858590E0099670
:101DF000215030404040504039014A01082E04C073
:101E000096948794779467940A94D2F72F5F3F4F04
:101E10004F4F5F4F0894E108F1080109110957017C
:101E2000680104C0D694C794B794A7948A95D2F752
:101E30000894E11CF11C011D111DA614B704C8046F
:101E4000D90428F0211531054105510549F48D8942
:101E50009E89AF89B88D8C839D83AE83BF8316C066
:101E6000A618B708C808D90811C04C815D816E81D9
:101E70007F81898D9A8D94010E94230C0894A1087A
:101E8000B108C108D108882331F40FC084E0882E3E
:101E9000912C8C0E9D1EA114B104C104D10429F70C
:101EA000E886F9860A871B8798CF80E0DF91CF917B
:101EB0001F910F91FF90EF90DF90CF90BF90AF9068
:101EC0009F908F907F906F900895223009F078CF87
:101ED000E7CFCF93DF93EC018C859D85AE85BF85E1
:101EE00040E0611141E0BC01CD010E94F909882365
:101EF00019F420E030E00AC08889282F30E095E00E
:101F0000220F331F9A95E1F72B563A4FC901DF9103
:101F1000CF9108950F931F93CF93DF938C01FC0112
:101F200083818823E1F1818187FF36C0C80161E0A8
:101F30000E94690FEC01009791F18881853E79F14B
:101F4000F8018381823040F481899289A389B48920
:101F50008C8F9D8FAE8FBF8FF80185899689A78959
:101F6000B08D9B8F8A8FCD01AA27BB279D8B8C8B31
:101F7000E0919C07F0919D07309751F0BE016A5E99
:101F80007F4FCE0148960995888D998D9B8B8A8BC2
:101F9000F80181818F7781830E94BE0904C081E0AE
:101FA000F801808380E0DF91CF911F910F91089518
:101FB0000F931F938C010E948A0FF80113821F91C7
:101FC0000F910895FC018381882319F0CF010E94AD
:101FD000D80F08956F927F928F929F92AF92BF9287
:101FE000CF92DF92EF92FF920F931F93DF93CF93E5
:101FF00000D000D0CDB7DEB77C015A016B01DC0107
:1020000013968C911397813009F091C011968C91A1
:1020100081FF8DC0A0C00097A105B10511F481E03A
:1020200087C0F7016084718482849384C701B601FC
:10203000A5010E94C00E882309F479C0D7015996E2
:102040008D919C915A97A114B104C104D10489F4D3
:1020500055964D915D916D917C9158970E94990C88
:10206000882309F464C0F701158A168A178A108E2E
:1020700044C0D70114964D915D916D917C91179755
:102080009E012F5F3F4F0E94230C882309F44FC00D
:10209000D7015996ED91FC915A9749815A816B81EC
:1020A0007C818789803149F4483FBFEF5B07B0E00E
:1020B0006B07B0E07B0748F020C0483F8FEF580720
:1020C0008FEF68078FE07807C0F4CF010E94990C6A
:1020D000882369F1D70114964D915D916D917C91A2
:1020E000179759968D919C915A970FEF1FEF2FEFED
:1020F0003FE00E949C0B8823D1F0F701A18AB28AAD
:10210000C38AD48A818180688183C7010E948A0F33
:10211000882369F0B601A5016A147B048C049D0430
:1021200010F4B401A301C7010E94C00E01C080E0F9
:102130000F900F900F900F90CF91DF911F910F9103
:10214000FF90EF90DF90CF90BF90AF909F908F90D7
:102150007F906F900895F70181899289A389B4894E
:1021600084179507A607B70708F055CFE0CFCF93A0
:10217000DF93EC0140E050E060E070E00E94EA0F85
:10218000882369F0CE0161E00E94690FFC0100978D
:1021900031F085EE80831B820E94BE0901C080E081
:1021A000DF91CF9108952F923F924F925F926F925D
:1021B0007F928F929F92AF92BF92CF92DF92EF92D7
:1021C000FF920F931F93CF93DF93EC012A018B8132
:1021D000882309F4B6C0898180FFB3C0C8C0250137
:1021E0004E185F083B0174E0272E312C2C0E3D1E4B
:1021F0004201A1C0288539854A855B856FEFA62EEF
:1022000061E0B62EA222B3228B8179018A0199E086
:1022100016950795F794E7949A95D1F7E98DFA8D7D
:10222000823049F4428D538D648D758D4E0D5F1D46
:10223000601F711F3FC0D480DA94DE20A114B10466
:10224000D9F4DD20C9F4211531054105510549F4C2
:102250008D899E89AF89B88D8C839D83AE83BF8322
:102260000BC04C815D816E817F81CF0191010E9405
:10227000230C882309F465C0E98DFA8D4C815D81BA
:102280006E817F814250504060407040058404C0A0
:10229000440F551F661F771F0A94D2F786859785CE
:1022A000A089B189480F591F6A1F7B1F4D0D511D11
:1022B000611D711D80E092E08A199B0984018815D7
:1022C000990508F48C0182E00030180709F067C016
:1022D0008091910590919205A0919305B0919405FC
:1022E000481759076A077B0709F459C08091950779
:1022F0009091960793010E940219882349F421C006
:1023000095012B563A4FC301B901A8010E94501FF5
:10231000600E711E980140E050E088859985AA857D
:10232000BB85820F931FA41FB51F88879987AA8733
:10233000BB87801A910A8114910409F05BCFA20136
:1023400002C04FEF5FEFCA01DF91CF911F910F9154
:10235000FF90EF90DF90CF90BF90AF909F908F90C5
:102360007F906F905F904F903F902F900895A98835
:10237000BA88CB88DC88E884F9840A851B859A01B1
:1023800040E050E0D601C5018E199F09A00BB10BAA
:10239000281739074A075B0708F021CF23CFCB0165
:1023A000BA0140E00E94F909882309F0A9CFC9CFFA
:1023B000DF93CF930F92CDB7DEB7BE016F5F7F4F34
:1023C00041E050E00E94D310019719F02FEF3FEF4A
:1023D00003C08981282F30E0C9010F90CF91DF9190
:1023E0000895EF92FF920F931F93CF93DF93EC0129
:1023F0008B81823038F1E884F9840A851B85CE010F
:102400000E94D81197FD1EC088859985AA85BB8535
:102410004F96A11DB11D88879987AA87BB87F5E0D4
:1024200016950795F794E794FA95D1F72E2D30E09D
:102430002F703070E5E0220F331FEA95E1F72B563D
:102440003A4F02C020E030E0C901DF91CF911F91E7
:102450000F91FF90EF9008950F931F93CF93DF9309
:10246000EC018B018B81882309F040C0FB01878937
:10247000803109F041C082E08B831D8A1E8A1F8A49
:10248000188E808D918DA0E0B0E025E0880F991F17
:10249000AA1FBB1F2A95D1F7898B9A8BAB8BBC8B5C
:1024A00013C083E08B83F801428D538D648D758D4D
:1024B0004D8B5E8B6F8B788F9E012F5E3F4FC801D7
:1024C0000E94F70C882391F01A8F098F81E089838D
:1024D0001C821D821E821F82188619861A861B8600
:1024E0001C861D861E861F86188A01C080E0DF912B
:1024F000CF911F910F9108958032C1F7D2CF1F93D2
:10250000CF93DF93EC01142F262F30E0F90155E033
:10251000EE0FFF1F5A95E1F7EB56FA4F8385817155
:1025200021F0842F827109F069C08091910590910A
:102530009205A0919305B09194058C879D87AE87F5
:10254000BF87688BF90145E0EE0FFF1F4A95E1F761
:10255000EB56FA4F84899589A0E0B0E0DC01992719
:1025600088278D8B9E8BAF8BB88F228D338DA901E1
:1025700060E070E0482B592B6A2B7B2B4D8B5E8BD8
:102580006F8B788F838590E088719070009751F4FD
:10259000848D958DA68DB78D898B9A8BAB8BBC8BDB
:1025A00081E00CC0409751F59E012F5E3F4F898D11
:1025B0009A8D0E94F70C882309F184E08B83812F88
:1025C0008F7089831C821D821E821F821886198645
:1025D0001A861B8614FF18C0CE0140E050E060E070
:1025E00070E00E94EA0F882379F40AC049895A8969
:1025F0006B897C89CE010E94C00E02C01B8280E0E4
:10260000DF91CF911F91089515FDF0CF81E0F8CFB4
:10261000CF93DF93EC019C012C5F3F4F898D9A8D06
:1026200041E050E060E070E00E94630D8823A1F07B
:102630008D899E89AF89B88D0097A105B10559F4A0
:102640008C819D81AE81BF818D8B9E8BAF8BB88F2E
:1026500089818068898381E0DF91CF9108952F92ED
:102660003F924F925F927F928F929F92AF92BF92D2
:10267000CF92DF92EF92FF920F931F93DF93CF934E
:1026800000D000D000D0CDB7DEB76C01162F072FD9
:102690005E834D83DC0113968C911397813009F092
:1026A0006EC111968C9181FF6AC187C1F601418983
:1026B00052896389748980859185A285B385841741
:1026C0009507A607B70731F0C6010E94C00E882300
:1026D00009F455C1812F902F9C0119014D805E8016
:1026E00012C1D6015996ED91FC915A97DA01C901B0
:1026F00049E0B695A795979587954A95D1F7748047
:102700007A9478228FEF882E81E0982E822293226D
:10271000772009F052C08114910409F04EC0D6010F
:1027200014964D915D916D917C91179741155105CE
:102730006105710571F1CF019E012F5F3F4F0E942E
:10274000230C882309F41BC129813A814B815C81C8
:10275000D6015996ED91FC915A978789803149F4B9
:10276000283FBFEF3B07B0E04B07B0E05B0748F006
:1027700019C0283FEFEF3E07EFEF4E07EFE05E078F
:1027800088F4D60114962D933D934D935C9317973F
:1027900014C0F60185899689A789B08D0097A10597
:1027A000B10531F4C6010E940813882331F4E7C053
:1027B000F60184839583A683B78380E092E088192D
:1027C000990952018415950508F45C01D6015996C2
:1027D000ED91FC915A971496ED90FD900D911C91FE
:1027E00017978EEF9FEFAFEFBFEFE80EF91E0A1FAE
:1027F0001B1F058404C0EE0CFF1C001F111F0A9450
:10280000D2F786859785A089B189E80EF91E0A1F3F
:102810001B1FE70CF11C011D111D90E0A91692E091
:10282000B90639F58091910590919205A091930593
:10283000B09194058E159F05A007B10771F4109211
:1028400097078FEF9FEFAFEFBFEF809391059093C6
:102850009205A0939305B09394058091950790916C
:102860009607B801A70191010E9447188823B9F57E
:1028700086C08114910419F5D60118962D913D91C9
:102880004D915C911B9751968D919D910D90BC91AE
:10289000A02D281739074A075B0788F00E94BE0958
:1028A000882309F46CC081E080939707E09291053A
:1028B000F0929205009393051093940508C0C80107
:1028C000B70141E00E94F909882309F458C0940136
:1028D0002B563A4FC901B101A5010E94501F950125
:1028E00040E050E0F60180859185A285B385820F96
:1028F000931FA41FB51F80879187A287B3872A0CD7
:102900003B1C4A185B08D60118962D913D914D91BC
:102910005C911B974114510409F0E3CE51968D91BF
:102920009D910D90BC91A02D82179307A407B50728
:1029300048F4F601218B328B438B548B8181806864
:10294000818311C080919C0790919D07892B59F03C
:102950008D819E81892B39F0D60111968C9111972A
:10296000806811968C93F601818183FF05C0C601B2
:102970000E948A0F882319F04D815E8105C081E095
:10298000D6018C934FEF5FEFCA0126960FB6F894ED
:10299000DEBF0FBECDBFCF91DF911F910F91FF9092
:1029A000EF90DF90CF90BF90AF909F908F907F90EF
:1029B0005F904F903F902F90089582FD77CE8ACE02
:1029C000DF92EF92FF920F931F93CF93DF93EC016F
:1029D00089899A89AB89BC89805E9F4FAF41B0409D
:1029E00008F071C0CE010E940813882309F46BC05F
:1029F0000E94BE09882309F466C0E98DFA8DEC8037
:102A0000FD800E811F818EEF9FEFAFEFBFEFE80ECD
:102A1000F91E0A1F1B1F058404C0EE0CFF1C001FBB
:102A2000111F0A94D2F786859785A089B189E80E8F
:102A3000F91E0A1F1B1F81E080939707E092910502
:102A4000F0929205009393051093940580E092E034
:102A5000E5E9F5E0DF019C011D9221503040E1F7EE
:102A6000DD24D39411C0B801A7014D0D511D611D86
:102A7000711D809195079091960725E935E00E9498
:102A80004718882301F1D394E98DFA8D8481D816F3
:102A900050F320E032E040E050E0058404C0220F13
:102AA000331F441F551F0A94D2F789899A89AB892D
:102AB000BC89820F931FA41FB51F898B9A8BAB8B88
:102AC000BC8B81E001C080E0DF91CF911F910F911D
:102AD000FF90EF90DF9008958F929F92AF92BF92F8
:102AE000CF92DF92EF92FF920F931F93CF93DF93DA
:102AF0006C01EB01942E852EA22E898D9A8DD60124
:102B00005A969C938E935997CB0140E050E060E039
:102B100070E00E94C00EBB2438C0CE010E94F111AB
:102B2000FC01009709F493C055E016950795F794BA
:102B3000E7945A95D1F71E2D1F708081882311F0DC
:102B4000853EC9F4BB2099F42091910530919205FE
:102B50004091930550919405D6011C962D933D9379
:102B60004D935C931F9750961C93BB24B394808124
:102B7000882359F418C0892D982DBF014BE050E0EF
:102B80000E94431F009709F470C0E884F9840A8505
:102B90001B8589899A89AB89BC89E816F9060A07D9
:102BA0001B0708F4BACFA6FE52C0A1FE50C0BB203E
:102BB00051F0F6011089C60161E00E94690FEC0135
:102BC000009769F444C08B81823009F440C0CE0183
:102BD0000E94E0148823D9F110E0C5E9D5E080E235
:102BE000DE011D928A95E9F7DE01292D382DC901F4
:102BF000FC018BE001900D928150E1F7E0919C0780
:102C0000F0919D07309739F0BE01625F7F4FCE0192
:102C10004096099508C081E298E2998B888B80E004
:102C200098E09F878E87888999899B8B8A8B998F5B
:102C3000888F8E859F859F8B8E8B0E94BE098823EF
:102C400031F0C601612F4A2D0E947F1201C080E041
:102C5000DF91CF911F910F91FF90EF90DF90CF9078
:102C6000BF90AF909F908F900895A7FEEACFEFCFCF
:102C70002F923F924F925F926F927F928F929F928C
:102C8000AF92BF92CF92DF92EF92FF920F931F937A
:102C9000DF93CF93CDB7DEB7C654D0400FB6F894CC
:102CA000DEBF0FBECDBF3C016B01DE01AE5BBF4F8F
:102CB00011965C934E9325962FAF25971C861F8601
:102CC0001FA21AA66115710509F480C0FC01838159
:102CD000882309F07BC0FA0180818F32F1F08601F0
:102CE000ECE0EE2EF12CEC0EFD1E72E4A72EB12CC2
:102CF000AC0EBD1E4E010894811C911C2796FFAEA0
:102D0000EEAE279767E2262E312C2C0E3D1E2701B2
:102D100024C01196B183A08301C0FD01A081B181BF
:102D20008C918F32B1F3D60113968C911397825008
:102D30008230A8F28E01095D1F4F59966D917C91EA
:102D40005A97C8010E942C12882351F63FC0342D97
:102D5000252D8701832F922F7C01F50180819181A0
:102D6000B401A5010E94720E882329F42FC0319668
:102D7000D501ED93FC93D501ED91FC9180818F32CB
:102D8000B1F38823C9F0C701B801A40121E00E9472
:102D90006C158823D9F00C151D0519F0C8010E9487
:102DA000D80F2796EEADFFAD2797EE16FF0679F602
:102DB000C101322D292FCDCFC301B801A401259621
:102DC0002FAD25970E946C15182F01C010E0CE0181
:102DD00087960E94E20FCE010C960E94E20F812F8F
:102DE000CA5BDF4F0FB6F894DEBF0FBECDBFCF91E9
:102DF000DF911F910F91FF90EF90DF90CF90BF90E8
:102E0000AF909F908F907F906F905F904F903F908A
:102E10002F900895DB010D900020E9F71197A61B74
:102E2000B70B0496AD010E942F130895DF93CF9343
:102E30000F92CDB7DEB769830496BE016F5F7F4FF7
:102E400041E050E00E942F1320E030E0019711F4A0
:102E500021E030E0C9010F90CF91DF9108950496F1
:102E60000E942F1308958091C10085FDFCCF8091B1
:102E7000C00085FFF8CF6093C60081E090E0089520
:102E80001092A1071092A00787EF91E090939F07FF
:102E900080939E070895FF920F931F93CF93DF9324
:102EA0008B010E94A41CEB01FF24FA9409C00E942C
:102EB000A41C6C1B7D0B6017710710F080E008C02C
:102EC000FEBC0DB407FEFDCF8EB58F3F81F781E0CC
:102ED000DF91CF911F910F91FF900895FC014281E6
:102EE000242F30E0C9019595879580658CBD40FF02
:102EF00002C080E004C080E0463009F081E08DBD72
:102F0000808160E00E94B51B0895DF92EF92FF92EE
:102F10000F931F93CF93DF93EC01D62E79018A0193
:102F20000E946E17CE016CE271E00E944B178D2D4E
:102F300080648EBD0DB407FEFDCF28E130E0D801DE
:102F4000C701022E04C0B695A795979587950A9458
:102F5000D2F78EBD0DB407FEFDCF285030408FEF65
:102F6000283F380761F7DD2011F485E906C088E0C5
:102F7000D81611F487E801C08FEF8EBD0DB407FE9F
:102F8000FDCF8CE0D81631F48FEF8EBD0DB407FE67
:102F9000FDCF8EB59FEF2FEF2EBD0DB407FEFDCFF9
:102FA0008EB587FF04C0992311F09150F5CF8B8324
:102FB000DF91CF911F910F91FF90EF90DF900895D7
:102FC000DF92EF92FF920F931F93CF93DF93EC0169
:102FD000D62E79018A0167E320E030E040E050E03E
:102FE0000E948517882331F0CE016D2DA80197012D
:102FF0000E948517DF91CF911F910F91FF90EF9065
:10300000DF900895FC01808161E00E94B51B8FEF85
:103010008EBD0DB407FEFDCF0895DC016EBDFA0133
:1030200020E030E00DB407FEFDCF80818EBD0DB4F1
:1030300007FEFDCF81818EBD2E5F3F4F329682E02D
:103040002030380779F70DB407FEFDCF8FEF8EBD26
:103050000DB407FEFDCF8FEF8EBD0DB407FEFDCF83
:103060008FEF8EBD0DB407FEFDCF8EB513968C93FA
:1030700013978F71853011F481E0089583E11196E3
:103080008C931197CD010E94021880E00895CF9291
:10309000DF92EF92FF920F931F93CF93DF93EC0198
:1030A0007A018B0169018C81833039F059E0EE0C93
:1030B000FF1C001F111F5A95D1F7CE0168E1A8012E
:1030C00097010E948517882311F086E023C0CE0166
:1030D0006EEFA6010E940D188823E9F0CE0168E585
:1030E00072E00E944B17882311F487E113C0CE01D0
:1030F0006DE020E030E040E050E00E94851788233A
:1031000041F48FEF8EBD0DB407FEFDCF8EB5882341
:1031100079F086E18983CE010E94021880E0DF9178
:10312000CF911F910F91FF90EF90DF90CF90089576
:10313000CE010E94021881E0F2CFBF92CF92DF92BF
:10314000EF92FF920F931F93CF93DF93EC016B01EC
:103150007A010E94A41C8B01BB24BA9409C00E946E
:10316000A41C601B710B6D52714010F081E10BC00B
:10317000BEBC0DB407FEFDCF8EB58B838F3F79F3B8
:103180008E3F39F08FE08983CE010E94021880E0E3
:103190002FC0D7011197EF28D9F08FEF8EBD20E017
:1031A00030E09FEF0BC00DB407FEFDCF8EB5F601EA
:1031B000E20FF31F80839EBD2F5F3F4F2A173B070F
:1031C00090F30DB407FEFDCF8EB5AC0DBD1D8C93F5
:1031D0008FEF8EBD0DB407FEFDCF8EB58FEF8EBD88
:1031E0000DB407FEFDCF8EB5CE010E94021881E01E
:1031F000DF91CF911F910F91FF90EF90DF90CF90D3
:10320000BF900895CF92DF92EF92FF920F931F939A
:10321000CF93DF93EC017A018B0169018C818330BC
:1032200039F0A9E0EE0CFF1C001F111FAA95D1F781
:10323000CE0161E1A80197010E948517882339F02A
:1032400084E08983CE010E94021880E006C0CE018E
:10325000B60140E052E00E949D18DF91CF911F918E
:103260000F91FF90EF90DF90CF900895BF92CF9293
:10327000DF92EF92FF920F931F93CF93DF93EC01B6
:10328000B62E1C82198248830E94A41C6B0188817F
:1032900061E00E948F1B888161E00E94B51B8CE079
:1032A00060E00E948F1B8BE061E00E948F1B8DE02D
:1032B00061E00E948F1B8AE061E00E948F1B8AE020
:1032C00061E00E94B51B85E08A8382E58CBD1DBC50
:1032D00080E09FEF9EBD0DB407FEFDCF8F5F8A306B
:1032E000C9F709C00E94A41C6C197D09615D774073
:1032F00010F081E056C0CE0160E020E030E040E018
:1033000050E00E948517182F8B83813059F7CE012A
:1033100068E02AEA31E040E050E00E94851782FF31
:1033200002C01C8311C080E02FEF2EBD0DB407FE3C
:10333000FDCF9EB58F5F8430C1F79B839A3A11F021
:1033400082E02FC082E08C838C81823021F0EE24D9
:10335000FF2487010FC0E12CF12C012D80E4182FF0
:1033600009C00E94A41C6C197D09615D774010F0B2
:103370008AE017C0CE0169E2A80197010E94E01718
:103380008B83882371F78C81823029F5CE016AE323
:1033900020E030E040E050E00E948517882331F0C3
:1033A00088E08983CE010E94021821C08FEF8EBD74
:1033B0000DB407FEFDCF8EB5807C803C11F483E018
:1033C0008C8380E09FEF9EBD0DB407FEFDCF2EB530
:1033D0008F5F8330C1F7CE010E94021886E08B1503
:1033E00018F488E1898303C0BA8281E001C080E0DB
:1033F000DF91CF911F910F91FF90EF90DF90CF90D1
:10340000BF900895FC012FB7F894428153818481C5
:103410009581481B590B2FBF57FF04C086819781A8
:10342000480F591FCA010895CF93DF93DC01EB01C8
:1034300014962D913C91159712968D919C9113970E
:103440008217930781F418968C911897882311F1AD
:1034500018961C928091C00085FFFCCF81E180937B
:10346000C60080E017C0ED91FC911197E20FF31FA9
:10347000808188832F5F3F4F16968D919C9117977F
:103480002817390710F020E030E015963C932E9372
:10349000149781E0DF91CF910895FC0171836083DF
:1034A0005783468315821482848195819383828316
:1034B0000895FC0122813381848195812817390781
:1034C00019F4EFEFFFEF0AC0848195810190F0813C
:1034D000E02DE80FF91F8081E82FF0E0CF0108957B
:1034E000DC0112968D919C911397ED91FC911197AF
:1034F000E80FF91F6083BC016F5F7F4F16964D91F7
:103500005C9117976417750710F060E070E01296F1
:103510002D913C91139714968D919C911597281B92
:10352000390B37FF02C0240F351F48505040241775
:10353000350758F08091C00085FFFCCF83E1809370
:10354000C60081E018968C93189714968D919C91E3
:1035500015976817790711F480E0089513967C9306
:103560006E93129781E008951F920F920FB60F92FB
:1035700011241F932F933F934F935F936F937F93E8
:103580008F939F93AF93BF93EF93FF931091C000DE
:103590001C716091C60083EA97E00E94701A88232C
:1035A00009F411608091A207812B8093A207FF91FB
:1035B000EF91BF91AF919F918F917F916F915F91AB
:1035C0004F913F912F911F910F900FBE0F901F9021
:1035D00018951F920F920FB60F9211242F933F93BD
:1035E0008F939F93EF93FF932091B0073091B10792
:1035F0008091AE079091AF078217930771F4809185
:10360000B407882319F11092B4078091C00085FF98
:10361000FCCF81E18093C60019C0E091AC07F09126
:10362000AD07E20FF31FE0812F5F3F4F8091B2079C
:103630009091B3072817390710F020E030E030935D
:10364000B1072093B007E093C60005C08091C10088
:103650008F7D8093C100FF91EF919F918F913F915A
:103660002F910F900FBE0F901F901895EF92FF9221
:103670000F931F93CF93DF938C019A01F894FC0171
:10368000428153817894FC01E480F5804E155F05FA
:1036900018F4C681D78107C0E416F50618F0C0E01B
:1036A000D0E02CC0EA01CE19DF092C173D0710F439
:1036B000E9010CC0F8018085882341F010868091D3
:1036C000C00085FFFCCF81E18093C600F801208116
:1036D00031812E0D3F1DCB01B901AE010E94501F5B
:1036E000CE018E0D9F1DF801268137818217930729
:1036F00010F0821B930BF80195838483CE01DF9138
:10370000CF911F910F91FF90EF900895CB01642FFF
:103710000E9485210895CB010E947D210895482FA4
:1037200050E0CA0187599E4FFC0124914B5A5E4FCD
:10373000FA0184918823C1F0E82FF0E0EE0FFF1F1B
:10374000E95CFE4FA591B491662341F49FB7F894CC
:103750008C91209582238C939FBF08959FB7F894F6
:103760008C91822B8C939FBF0895482F50E0CA0103
:1037700083589E4FFC012491CA0187599E4FFC013A
:1037800094914B5A5E4FFA013491332309F440C0AF
:10379000222351F1233071F0243028F42130A1F09C
:1037A000223011F514C02630B1F02730C1F024309A
:1037B000D9F404C0809180008F7703C0809180008D
:1037C0008F7D8093800010C084B58F7702C084B550
:1037D0008F7D84BD09C08091B0008F7703C0809138
:1037E000B0008F7D8093B000E32FF0E0EE0FFF1F5D
:1037F000EF5BFE4FA591B4912FB7F894662321F4A7
:103800008C919095892302C08C91892B8C932FBF2A
:103810000895682F70E0CB0183589E4FFC012491DE
:10382000CB0187599E4FFC0144916B5A7E4FFB019F
:103830009491992319F420E030E03CC0222351F107
:10384000233071F0243028F42130A1F0223011F51A
:1038500014C02630B1F02730C1F02430D9F404C0B0
:10386000809180008F7703C0809180008F7D80934E
:10387000800010C084B58F7702C084B58F7D84BD71
:1038800009C08091B0008F7703C08091B0008F7D18
:103890008093B000892F90E0880F991F855B9E4F21
:1038A000FC01A591B4918C9120E030E0842311F0CB
:1038B00021E030E0C90108951F920F920FB60F92D8
:1038C00011242F933F938F939F93AF93BF93809136
:1038D000BA079091BB07A091BC07B091BD0730918A
:1038E000BE070196A11DB11D232F2D5F2D3720F09E
:1038F0002D570196A11DB11D2093BE078093BA07D5
:103900009093BB07A093BC07B093BD078091B60707
:103910009091B707A091B807B091B9070196A11D82
:10392000B11D8093B6079093B707A093B807B093E3
:10393000B907BF91AF919F918F913F912F910F90B8
:103940000FBE0F901F9018958FB7F8942091BA076B
:103950003091BB074091BC075091BD078FBFB901A3
:10396000CA0108959B01AC017FB7F8948091B60716
:103970009091B707A091B807B091B90766B5A89B19
:1039800005C06F3F19F00196A11DB11D7FBFBA2F71
:10399000A92F982F8827860F911DA11DB11D62E0C8
:1039A000880F991FAA1FBB1F6A95D1F7BC012DC0B4
:1039B000FFB7F8948091B6079091B707A091B80728
:1039C000B091B907E6B5A89B05C0EF3F19F0019685
:1039D000A11DB11DFFBFBA2FA92F982F88278E0FC9
:1039E000911DA11DB11DE2E0880F991FAA1FBB1FE9
:1039F000EA95D1F7861B970B885E9340C8F2215059
:103A000030404040504068517C4F21153105410500
:103A1000510571F60895789484B5826084BD84B5AB
:103A2000816084BD85B5826085BD85B5816085BDB9
:103A3000EEE6F0E0808181608083E1E8F0E01082D2
:103A4000808182608083808181608083E0E8F0E013
:103A5000808181608083E1EBF0E0808184608083FD
:103A6000E0EBF0E0808181608083EAE7F0E0808134
:103A70008460808380818260808380818160808394
:103A80008081806880831092C1000895CF93DF9376
:103A90000E940B1D0E943407C0E0D0E00E94B109D3
:103AA0002097E1F30E940000F9CFCF92DF92EF92CE
:103AB000FF920F931F93CF93DF937C016B018A01D9
:103AC000C0E0D0E00FC0D6016D916D01D701ED913E
:103AD000FC910190F081E02DC7010995C80FD91F15
:103AE000015010400115110571F7CE01DF91CF9102
:103AF0001F910F91FF90EF90DF90CF900895EF927C
:103B0000FF920F931F93CF93DF937C018B01C0E053
:103B1000D0E0F8010F5F1F4F6491662359F0D70181
:103B2000ED91FC910190F081E02DC7010995C80F3E
:103B3000D91FEFCFCE01DF91CF911F910F91FF9051
:103B4000EF900895DC01ED91FC910190F081E02D62
:103B500009950895EF92FF920F931F938C01DC015A
:103B6000ED91FC910190F081E02D6DE009957C01D3
:103B7000D801ED91FC910190F081E02DC8016AE03F
:103B800009959C012E0D3F1DC9011F910F91FF90BA
:103B9000EF900895EF92FF920F931F937C010E9484
:103BA0007F1D8C01C7010E94AA1D9C01200F311F9F
:103BB000C9011F910F91FF90EF900895CF93DF936C
:103BC000DB010D900020E9F71197A61BB70BEC0164
:103BD000E881F9810280F381E02DAD010995DF9143
:103BE000CF9108954F925F927F928F929F92AF9262
:103BF000BF92CF92DF92EF92FF920F931F93DF93CA
:103C0000CF93CDB7DEB7A1970FB6F894DEBF0FBE46
:103C1000CDBF2C01742ECB01223008F42AE019A26A
:103C200031E2C32ED12CCC0EDD1E822E9924AA2483
:103C3000BB24672D752FA50194010E94FD1E7901FB
:103C40008A01C801B701A50194010E94DE1E472D1B
:103C5000461B0894C108D1084A3014F4405D01C0E5
:103C6000495CF6014083E114F1040105110521F0DE
:103C70007E2C5F2DC801DDCFC201B6010E94DE1D82
:103C8000A1960FB6F894DEBF0FBECDBFCF91DF91E6
:103C90001F910F91FF90EF90DF90CF90BF90AF906A
:103CA0009F908F907F905F904F900895CF92DF927A
:103CB000EF92FF920F931F93CF93DF93EC016A0172
:103CC0007B012115310541F4E881F9810190F081F2
:103CD000E02D642F09951FC02A303105D1F477FFFC
:103CE00017C0E881F9810190F081E02D6DE209951E
:103CF0008C0144275527BA014C195D096E097F09CB
:103D0000CE012AE00E94F21D9801280F391F04C03D
:103D10002AE00E94F21D9C01C901DF91CF911F9101
:103D20000F91FF90EF90DF90CF900895EF92FF9268
:103D30000F931F937B019A010027F7FC0095102F2A
:103D4000B801A7010E94561E1F910F91FF90EF909E
:103D50000895CF92DF92EF92FF920F931F936C0121
:103D60007B019A010027F7FC0095102FB801A701ED
:103D70000E94561E8C01C6010E94AA1D080F191F21
:103D8000C8011F910F91FF90EF90DF90CF900895A1
:103D90000E94DE1D0895EF92FF920F931F937C0106
:103DA0000E94DE1D8C01C7010E94AA1D080F191F69
:103DB000C8011F910F91FF90EF900895629FD0016D
:103DC000739FF001829FE00DF11D649FE00DF11DD6
:103DD000929FF00D839FF00D749FF00D659FF00D85
:103DE0009927729FB00DE11DF91F639FB00DE11D72
:103DF000F91FBD01CF0111240895A1E21A2EAA1BBB
:103E0000BB1BFD010DC0AA1FBB1FEE1FFF1FA2178A
:103E1000B307E407F50720F0A21BB30BE40BF50B87
:103E2000661F771F881F991F1A9469F76095709510
:103E3000809590959B01AC01BD01CF010895EE0FD7
:103E4000FF1F0590F491E02D0994FC018827992724
:103E5000E89421912032E9F3293010F02E30C8F394
:103E60002B3241F02D3239F4689404C00E94741F43
:103E7000820F911D219120532A30C0F31EF490959A
:103E800081959F4F0895FB01DC0104C08D91019045
:103E9000801921F441505040C8F7881B990B0895B0
:103EA000FB01DC0102C001900D9241505040D8F757
:103EB0000895FB01DC010D900020E9F711970190B6
:103EC0000D920020E1F70895FB01DC018D91019036
:103ED00080190110D9F3990B0895FB01DC010190C1
:103EE0000D920020E1F708957AE0979F902D879F2B
:103EF000802D910D11240895AEE0B0E0E2E8FFE1DD
:103F00000C9441220D891E8986E08C831A830983D3
:103F10008FEF9FE79E838D839E01275E3F4FCE01EB
:103F200001966F89788DA9010E94A01F2F81388585
:103F3000020F131FF80110822E96E4E00C945D220C
:103F4000ABE0B0E0E6EAFFE10C9433223C012B0148
:103F50005A01FC0117821682838181FD03C06FEF35
:103F60007FEFC6C19AE0892E1E010894211C311CE6
:103F7000F3012381F20123FD859123FF81912F011C
:103F8000882309F4B2C1853239F423FD859123FFDA
:103F900081912F01853229F490E0B3010E94A9217B
:103FA000E7CF982FFF24EE249924FFE1FF15D0F0EE
:103FB0009B3269F09C3228F4903259F0933291F49C
:103FC0000EC09D3249F0903369F441E024C052E0C4
:103FD000F52A84E0F82A28C098E0F92A25C0E0E113
:103FE000FE2A22C0F7FC29C0892F80538A3070F442
:103FF000F6FE05C0989C902C1124980E15C0E89CE4
:10400000E02C1124E80EF0E2FF2A0EC09E3229F4C3
:10401000F6FC6BC140E4F42A07C09C3619F450E862
:10402000F52A02C0983649F4F20123FD959123FF49
:1040300091912F01992309F0B8CF892F85548330AE
:1040400018F08052833038F444E050E0A40EB51EDE
:104050005FE359830FC0933631F0933779F093358E
:1040600009F056C020C0F5018081898342E050E00C
:10407000A40EB51E610101E010E012C0F501C08080
:10408000D180F6FC03C06FEF7FEF02C0692D70E0B6
:1040900042E050E0A40EB51EC6010E949E218C0194
:1040A0005FE7F52214C0F501C080D180F6FC03C0A3
:1040B0006FEF7FEF02C0692D70E042E050E0A40E88
:1040C000B51EC6010E9493218C0150E8F52AF3FE2B
:1040D00007C01AC080E290E0B3010E94A921EA94CF
:1040E0008E2D90E008171907A8F30EC0F601F7FC13
:1040F0008591F7FE81916F0190E0B3010E94A921A3
:10410000E110EA94015010400115110579F7EAC059
:10411000943611F0993669F5F7FE08C0F501208153
:1041200031814281538184E090E00AC0F5018081B1
:1041300091819C01442737FD4095542F82E090E007
:10414000A80EB91E9FE6F92257FF09C05095409569
:10415000309521953F4F4F4F5F4FE0E8FE2ACA014F
:10416000B901A1012AE030E00E94D521D82ED21851
:1041700040C0953729F41F2D1F7E2AE030E01DC076
:104180001F2D197F9F3661F0903720F4983509F084
:10419000ACC00FC0903739F0983709F0A6C004C002
:1041A00028E030E00AC0106114FD146020E130E026
:1041B00004C014FD166020E132E017FF08C0F501CD
:1041C000608171818281938144E050E008C0F501F3
:1041D00080819181BC0180E090E042E050E0A40E3B
:1041E000B51EA1010E94D521D82ED2188FE7F82E36
:1041F000F122F6FE0BC05EEFF522D91438F4F4FE7E
:1042000007C0F2FC05C08FEEF82202C01D2D01C0D0
:10421000192DF4FE0DC0FE01ED0DF11D80818033DE
:1042200019F499EEF92208C01F5FF2FE05C003C021
:104230008F2D867809F01F5F0F2DF3FC14C0F0FE60
:104240000FC01E1510F09D2C0BC09D2C9E0C911ABA
:104250001E2D06C080E290E0B3010E94A9211F5FDD
:104260001E15C0F304C01E1510F4E11A01C0EE249F
:1042700004FF0FC080E390E0B3010E94A92102FF78
:104280001DC001FD03C088E790E00EC088E590E006
:104290000BC0802F867891F001FF02C08BE201C035
:1042A00080E2F7FC8DE290E0B3010E94A92106C0F4
:1042B00080E390E0B3010E94A9219A94D914C0F33D
:1042C000DA94F101ED0DF11D808190E0B3010E94BF
:1042D000A921DD20A9F706C080E290E0B3010E9489
:1042E000A921EA94EE20C1F743CEF30166817781DC
:1042F000CB012B96E2E10C944F22F999FECF92BDAF
:1043000081BDF89A992780B50895262FF999FECF97
:104310001FBA92BD81BD20BD0FB6F894FA9AF99AE2
:104320000FBE01960895FC01059061507040011088
:10433000D8F7809590958E0F9F1F0895FC016150CE
:10434000704001900110D8F7809590958E0F9F1FB7
:1043500008950F931F93CF93DF938C01EB018B8113
:1043600081FF1BC082FF0DC02E813F818C819D810A
:104370002817390764F4E881F9810193F983E88308
:1043800006C0E885F985802F0995892B31F48E8147
:104390009F8101969F838E8302C00FEF1FEFC8019C
:1043A000DF91CF911F910F910895FA01AA2728302C
:1043B00051F1203181F1E8946F936E7F6E5F7F4FF2
:1043C0008F4F9F4FAF4FB1E03ED0B4E03CD0670F6E
:1043D000781F891F9A1FA11D680F791F8A1F911DC1
:1043E000A11D6A0F711D811D911DA11D20D009F411
:1043F00068943F912AE0269F11243019305D319353
:10440000DEF6CF010895462F4770405D4193B3E03B
:104410000FD0C9F7F6CF462F4F70405D4A3318F0E2
:10442000495D31FD4052419302D0A9F7EACFB4E093
:10443000A6959795879577956795BA95C9F700974B
:104440006105710508959B01AC010A2E06945795EC
:10445000479537952795BA95C9F7620F731F841F43
:10446000951FA01D08952F923F924F925F926F92D9
:104470007F928F929F92AF92BF92CF92DF92EF92F4
:10448000FF920F931F93CF93DF93CDB7DEB7CA1B75
:10449000DB0B0FB6F894DEBF0FBECDBF09942A88A0
:1044A000398848885F846E847D848C849B84AA8448
:1044B000B984C884DF80EE80FD800C811B81AA81D5
:1044C000B981CE0FD11D0FB6F894DEBF0FBECDBFA0
:1044D000ED01089511E0C6E9D1E004C0FE010E949B
:0E44E000211F2296C839D107C9F7F894FFCFE3
:1044EE006F70656E526F6F7400636F6E6669672EC4
:1044FE00747874003234303000343830300039364D
:10450E00303000313932303000333834303000350D
:10451E0037363030003131353230300032333034CE
:10452E003030002C25642C25642C25642C25642C1D
:10453E00256400000A0D626175642C6573636170F9
:10454E00652C657363232C6D6F64652C76657262C2
:10455E002C6563686F0000636172642E696E697406
:10456E0000766F6C756D652E696E69740031003260
:10457E00006F70656E310073796E63696E6720002F
:10458E0073796E63696E6720616E6420736C656506
:10459E0070696E67005345514C4F4730302E54585A
:1045AE0054004C4F47253035642E545854004C4F10
:1045BE004730303030302E54585400000000002D5B
:1045CE000136017D0164015F015E010000000016ED
:0C45DE0017551D000000003317551D008C
:00000001FF
